:100000000C9472000C948B000C948B000C948B005D
:100010000C948B000C948B000C948B000C948B0034
:100020000C948B000C948B000C948B000C948B0024
:100030000C948B000C948B000C948B000C948B0014
:100040000C948B000C948B000C948B000C948B0004
:100050000C948B000C948B000C948B000C948B00F4
:100060000C948B000C948B000C948B000C948B00E4
:100070000C948B000C948B000C948B000C948B00D4
:100080000C948B000C948B000C948B000C948B00C4
:100090000C948B000C948B000C948B000C948B00B4
:1000A0000C948B000C948B000C948B000C948B00A4
:1000B0000C948B000C948B000C948B000C948B0094
:1000C0000C948B000C948B000C948B000C948B0084
:1000D0000C948B000C948B000C948B000C948B0074
:1000E0000C948B0011241FBECFEFD1E2DEBFCDBF39
:1000F00000E00CBF12E0A0E0B2E0ECEDF1E000E0C7
:100100000BBF02C007900D92A232B107D9F70E942F
:10011000CA000C94EC000C9400001092C50083E31C
:100120008093C40086E08093C20088E18093C10080
:1001300008959091C00095FFFCCF8093C60008956C
:100140008091C00087FFFCCF8091C6000895CF93B7
:10015000DF93EC018991811103C0DF91CF91089564
:100160000E949900F7CF1F93CF93DF93182FEC01D4
:100170000E94A00088832196811106C08C2F811BCC
:10018000DF91CF911F9108958A3011F08D3081F762
:100190001882F4CF279A0E948D0080E092E00E949E
:1001A000A7000E94A000C82F8A3069F087E192E082
:1001B0000E94A7008C2F0E949900CD3041F085B19C
:1001C000805885B9EECF8AE00E949900F8CF85E18A
:0C01D00092E00E94A700F3CFF894FFCF4C
:1001DC004D6567612055415254206563686F2072EC
:1001EC00656164790D0A0052656365697665643AE8
:0201FC002000E1
:00000001FF
