:100000000C9472000C948B000C948B000C948B005D
:100010000C948B000C948B000C948B000C948B0034
:100020000C948B000C948B000C948B000C948B0024
:100030000C948B000C948B000C948B000C948B0014
:100040000C948B000C948B000C948B000C948B0004
:100050000C948B000C948B000C948B000C948B00F4
:100060000C948B000C948B000C948B000C948B00E4
:100070000C948B000C948B000C948B000C948B00D4
:100080000C948B000C948B000C948B000C948B00C4
:100090000C948B000C948B000C948B000C948B00B4
:1000A0000C948B000C948B000C948B000C948B00A4
:1000B0000C948B000C948B000C948B000C948B0094
:1000C0000C948B000C948B000C948B000C948B0084
:1000D0000C948B000C948B000C948B000C948B0074
:1000E0000C948B0011241FBECFEFD1E2DEBFCDBF39
:1000F00000E00CBF15E0A0E0B2E0E6E2FEE000E0C8
:100100000BBF02C007900D92AE3BB107D9F70E941A
:100110000A040C9411070C940000CF93DF93C0EEF7
:10012000D4E061E089910E94D70184E0CF3ED807F6
:10013000C1F7CFEED4E060E089910E94D70184E05E
:10014000C73FD807C1F7C091DD0461E08C2F0E9442
:10015000D70161E08C2F0E940202C091DF0461E0B0
:100160008C2F0E94D70161E08C2F0E940202C09167
:10017000DE0461E08C2F0E94D70161E08C2FDF91BB
:10018000CF910C940202CF93DF9361E08091DD0464
:100190000E94020260E08091DE040E94D70160E0CC
:1001A0008091DF040E94D701C0EED4E060E0899125
:1001B0000E94D70184E0CF3ED807C1F7CFEED4E04C
:1001C00060E089910E94D70184E0C73FD807C1F75A
:1001D000DF91CF910895DF92EF92FF920F931F93DB
:1001E000CF93DF9387EF94E00E94E70300E010E0F5
:1001F000C0E0D0E0E12CF12CC70134E0880F991F5A
:100200003A95E1F780509E4FFC01EC0FFD1F608195
:10021000C8010E9426030F5F1F4F2196003681E020
:10022000180731F58CE095E00E94E70300E010E04C
:10023000E12CF12CC0E0D0E0C70124E0880F991F29
:100240002A95E1F780509E4FFC01EC0FFD1FD080F6
:10025000C8010E943B02D816D9F089E295E0DF91EF
:10026000CF911F910F91FF90EF90DF900C94E703D7
:10027000C031D10509F68FEFE81AF80AC0E0D0E0E6
:10028000BBCFC031D105C1F68FEFE81AF80AD2CF43
:100290000F5F1F4F2196003681E0180791F78FE21C
:1002A00095E0DDCF6F927F928F929F92AF92BF9237
:1002B000CF92DF92EF92FF920F931F93CF93DF9332
:1002C000CDB7DEB7CC54D1090FB6F894DEBF0FBE60
:1002D000CDBF88E395E00E94E70388E3EEE4F5E014
:1002E000DE01119601900D928A95E1F7CE010196FB
:1002F0000E94E703C12CD12C81E4A82E85E0B82E02
:100300007E0189E3E80EF11C98E4892E95E0992E90
:10031000DF92CF92BF92AF92FF92EF920E942B0496
:10032000C7010E94E7030F900F900F900F900F905E
:100330000F908601370180E1C80ED11CC8010F5F04
:100340001F4F0E943B021F928F939F928F927F922A
:100350006F920E942B04C3010E94E7030F900F903D
:100360000F900F900F900F900C151D0539F784E832
:1003700095E00E94E703003681E01807B1F4C45B02
:10038000DF4F0FB6F894DEBF0FBECDBFDF91CF9128
:100390001F910F91FF90EF90DF90CF90BF90AF90A3
:1003A0009F908F907F906F9008956801B1CF8633B2
:1003B00040F597E0899FF0011124E05AFC4FA0819D
:1003C000B181868121E030E001C0220F8A95EAF7F1
:1003D000613069F00280F381E02D822F80956230D8
:1003E00051F09C9198239C939081892309C08C9112
:1003F000822B8C9308959C9189238C938081822BEE
:1004000080830895CF93DF938633B8F497E0899F74
:10041000F0011124E05AFC4FC081D181A281B38147
:10042000268181E090E001C0880F2A95EAF72881B3
:100430009C91611529F0892B8C93DF91CF910895C0
:1004400080958923F9CF8633A0F497E0899FF00146
:100450001124E05AFC4FA481B5819C91868121E052
:1004600030E001C0220F8A95EAF7922381E09111D2
:1004700001C080E00895CF92DF92EF92FF920F9338
:100480001F93CF93DF937C010FEE14E0E80160E04F
:1004900089910E94D70124E0C73FD207C1F785E0C8
:1004A0008A95F1F7000080EEC82E84E0D82EC0E0D7
:1004B000D0E0B7010C2E02C0769567950A94E2F75A
:1004C0006170F60181916F010E9402022196CF3086
:1004D000D10579F7D090DD0460E08D2D0E940202F5
:1004E000F5E0FA95F1F70000E090DE0460E08E2D73
:1004F0000E94020225E02A95F1F70000C0E0D0E05A
:10050000F12CF80181918F010E9423020C2E01C071
:10051000880F0A94EAF7F82A2196C830D10589F79E
:1005200061E08D2D0E94020225E02A95F1F700007E
:1005300061E08E2D0E94020285E08A95F1F70000AD
:100540008F2DDF91CF911F910F91FF90EF90DF9052
:10055000CF900895AF92BF92DF92EF92FF920F93E8
:100560001F93CF93DF93CDB7DEB764970FB6F894A0
:10057000DEBF0FBECDBFF82EE92ED62E87E7411580
:1005800019F0413019F482E70E94D90389E995E016
:100590000E94F303EF92FF9283EAA82E85E0B82E23
:1005A000BF92AF928E010F5F1F4F1F930F930E9458
:1005B0002B04C8010E94F30387EB95E00E94F3032C
:1005C000EF92FF9296EAE92E95E0F92EFF92EF92D4
:1005D0001F930F930E942B04C8010E94F30389EA22
:1005E00095E00E94F3031F92DF92BF92AF921F9398
:1005F0000F930E942B04C8010E94F30386EB95E041
:100600000E94F3031F92DF92FF92EF921F930F93CA
:100610000E942B04C8010E94F3038BEB95E00E941B
:10062000F3030FB6F894DEBF0FBECDBF64960FB6CE
:10063000F894DEBF0FBECDBFDF91CF911F910F9118
:10064000FF90EF90DF90BF90AF9008959F92AF9290
:10065000BF92CF92DF92EF92FF920F931F93CF93AF
:10066000DF937C01B62E0FEE14E0E80160E0899183
:100670000E94D70184E0C73FD807C1F7E5E0EA95BB
:10068000F1F7000090EEC92E94E0D92EC0E0D0E042
:10069000B7010C2E02C0769567950A94E2F7617057
:1006A000F60181916F010E9402022196CF30D1059F
:1006B00079F7F5E0FA95F1F7000061E08091DE044A
:1006C0000E94020285E08A95F1F70000A090DD0407
:1006D00060E08A2D0E940202E5E0EA95F1F7000051
:1006E000F5E0FA95F1F700009090DF0460E0892DC5
:1006F0000E94020285E08A95F1F700008FEEC82E75
:1007000084E0D82EE12CF12CCB2DD0E0F601B19075
:100710006F0161E08B2D0E94D701BE010E2C02C03B
:10072000759567950A94E2F761708B2D0E9402021D
:10073000FFEFEF1AFF0A88E0E816F10439F7E5E069
:10074000EA95F1F7000061E0892D0E940202F5E0D0
:10075000FA95F1F7000061E08A2D0E94020285E01F
:100760008A95F1F7000060E0F80181918F010E9405
:10077000D701F4E0073F1F07B1F785E08A95F1F74D
:100780000000DF91CF911F910F91FF90EF90DF90CC
:10079000CF90BF90AF909F9008951092C50083E3D3
:1007A0008093C40086E08093C20088E18093C100FA
:1007B00008959091C00095FFFCCF8093C6000895E6
:1007C0008091C00087FFFCCF8091C6000895CF9331
:1007D000DF93EC018991811103C0DF91CF910895DE
:1007E0000E94D903F7CF1F93CF93DF93182FEC010B
:1007F0000E94E00388832196811106C08C2F811B03
:10080000DF91CF911F9108958A3011F08D3081F7DB
:100810001882F4CF0E94CD0386E895E00E94E7039A
:100820000E948D002FEF83ED90E321508040904097
:10083000E1F700C000000E94EB002FEF83ED90E392
:10084000215080409040E1F700C000000E9452011A
:1008500080E090E008950F931F93CF93DF93CDB77F
:10086000DEB72E970FB6F894DEBF0FBECDBF0E8950
:100870001F8986E08C831A8309838FEF9FE79E830D
:100880008D83AE01465E5F4F688D798DCE010196F6
:100890000E945B042F813885020F131FF80110821C
:1008A0002E960FB6F894DEBF0FBECDBFDF91CF916D
:1008B0001F910F9108953F924F925F926F927F9296
:1008C0008F929F92AF92BF92CF92DF92EF92FF9260
:1008D0000F931F93CF93DF9300D000D000D00F92DF
:1008E0000F92CDB7DEB76C017B018A01FC01178244
:1008F0001682838181FFEEC19AE0492EF6012381A1
:10090000F70123FD859123FF81917F01811509F472
:100910001FC1853239F423FD959123FF91917F0109
:10092000953229F4B60190E00E948306E7CF30E0CB
:10093000612C512C712CF0E27F1640F59B32D9F0DE
:1009400058F49032D1F09332F1F09E3299F576FC62
:10095000FFC0689476F806C09D3291F09033C1F4E0
:10096000689470F8F70123FD959123FF91917F0121
:100970009111E1CF29C0689471F8689472F8F2CFB0
:10098000689473F8EFCF689474F8ECCF77FC1CC0D0
:1009900080ED890F8A30C8F676FE05C0649C800D14
:1009A0001124682EDFCF549C800D1124582E68949A
:1009B00075F8D8CF9C3619F4689477F8D3CF9C3467
:1009C00009F44BC0983671F2892F8F7D855483309E
:1009D00008F445C0933609F466C0933709F469C03A
:1009E000933509F475C0943619F0993609F09FC013
:1009F000F80177FE95C061917191819191918F017C
:100A0000272D2F76722E97FF09C0909580957095AF
:100A100061957F4F8F4F9F4F689477F82AE030E0C1
:100A2000AE014F5F5F4F5A010E94B3068A19A82E8C
:100A300076FED9C0872D8E7FA61408F0D3C074FE31
:100A400026C172FC1AC1F72DFE7E7F2EB62C872D93
:100A50008678811509F4D4C015C131E083CF3115F2
:100A6000F9F0085F1F4F8FE3898388248394912CCA
:100A7000AE014F5F5F4F5A01E89477F873FC03C0F3
:100A800085149104B0F181149104D1F5511409F445
:100A900035CFB60180E290E00E9483065A94F6CFEB
:100AA0000C5F1F4FE0CFF801808189830E5F1F4FDD
:100AB000DCCFF801A190B1908F01662D70E076FC3B
:100AC00002C06FEF7FEFC5010E9478064C01D4CFC2
:100AD000F801A190B1908F01662D70E076FC02C004
:100AE0006FEF7FEFC5010E946D064C01689477F8A7
:100AF000C5CFB60180E290E00E9483065A94C0CF31
:100B0000F50177FC859177FE81915F01B60190E058
:100B10000E94830651105A94F1E08F1A9108B3CFC6
:100B200061917191072E000C880B990B68CF372CBF
:100B3000E89434F82AE030E09537D9F1572D597F01
:100B4000352E903739F1F8F4983549F19F3679F11F
:100B5000F601868197812B960FB6F894DEBF0FBE03
:100B6000CDBFDF91CF911F910F91FF90EF90DF905C
:100B7000CF90BF90AF909F908F907F906F905F903D
:100B80004F903F900895983719F774FC05C020E105
:100B900030E00FC0689434F8689432F8F8CF74FEEF
:100BA00003C0872D8660382E20E132E002C028E0A5
:100BB00030E0F80137FE11C06191719181919191FE
:100BC0008F01FE0131965F01AF010E94B3068A19C1
:100BD000A82E732CE89477F82BCF6191719180E067
:100BE00090E0EECF782EBA2C74FE31CFFE01EA0DE4
:100BF000F11D8081803309F043C0272D297E722E9C
:100C000073FC0EC070FE4FC06A2CB51418F4650C4E
:100C10006B18B52C852D8B195B1408F480E0B80E89
:100C2000B51408F042C05B1874FE41C0B60180E301
:100C300090E00E94830672FE09C088E590E071FC96
:100C400002C088E790E0B6010E948306A614D8F19E
:100C5000AA94B12C4FEFA41AB40ACE0101963C011C
:100C6000A80EB91EF50182915F01B60190E00E94C5
:100C700083066A147B04B1F709CFB62C782EB6CF61
:100C800072FC02C0B394BCCFB394B394B9CFB62C6A
:100C9000782EDDCEB60180E290E00E948306339488
:100CA0003514C0F3B7CF3B2CFBCF512CBDCF872DD4
:100CB0008678811559F280E271FC8BE277FC8DE237
:100CC000B60190E0C1CFB60180E390E00E948306B8
:100CD0006A94BCCF8FEF9FEF3ECFFC01059061502F
:100CE00070400110D8F7809590958E0F9F1F089542
:100CF000FC016150704001900110D8F780959095EB
:100D00008E0F9F1F08950F931F93CF93DF93182F7C
:100D1000092FEB018B8181FD09C01FEF0FEF812FA0
:100D2000902FDF91CF911F910F91089582FF14C0F2
:100D30002E813F818C819D81281739073CF4E88101
:100D4000F981CF0101969983888310838E819F81D9
:100D500001969F838E83E3CFE885F985812F1995CE
:100D6000892BA1F3DACFFA01AA27283051F12031DB
:100D700081F1E8946F936E7F6E5F7F4F8F4F9F4F2F
:100D8000AF4FB1E03ED0B4E03CD0670F781F891F71
:100D90009A1FA11D680F791F8A1F911DA11D6A0F3F
:100DA000711D811D911DA11D20D009F468943F91F2
:100DB0002AE0269F11243019305D3193DEF6CF01F1
:100DC0000895462F4770405D4193B3E00FD0C9F7B7
:100DD000F6CF462F4F70405D4A3318F0495D31FD24
:100DE0004052419302D0A9F7EACFB4E0A695979577
:100DF000879577956795BA95C9F70097610571054D
:100E000008959B01AC010A2E069457954795379596
:100E10002795BA95C9F7620F731F841F951FA01DF0
:060E20000895F894FFCFD5
:100E2600A9FF8D0260A9E08D0360A9388D0060A935
:100E3600008D0160A9808D0160A9008D0160A90E59
:100E46008D0060A9008D0160A9808D0160A9008DCB
:100E56000160A9068D0060A9008D0160A9808D0141
:100E660060A9008D0160A9018D0060A9008D016057
:100E7600A9808D0160A9008D0160A943207680A913
:100E860069207680A961207680A96F207680A921C5
:100E96002076804C92808D0060A9208D0160A9A0EB
:100EA6008D0160A9208D016060A600208F8060A45E
:100EB6000160A9312076802089804C928000000054
:100EC600000000000000000000000000000000001C
:100ED600000000000000000000000000000000000C
:100EE60000000000000000000000000000000000FC
:100EF60000000000000000000000000000000000EC
:100F060000000000000000000000000000000000DB
:100F160000000000000000000000000000000000CB
:100F260000000000000000000000000000000000BB
:100F360000000000000000000000000000000000AB
:100F4600000000000000000000000000000000009B
:100F5600000000000000000000000000000000008B
:100F6600000000000000000000000000000000007B
:100F7600000000000000000000000000000000006B
:100F86002D002E002C00002D002E002C00012D001F
:100F96002E002C00042D002E002C000533003400FA
:100FA6003200052D002E002C000301010201000174
:100FB6000301010201000104010102010001050112
:100FC6000102010001062400250023000424002557
:100FD6000023000524002500230006240025002305
:100FE60000070401050103010104010501030100D5
:100FF60001010201000101010102010001002A00B4
:101006002B002900032A002B002900022A002B00AE
:101016002900012A002B00290000210022002000BF
:1010260000210022002000012100220020000221D0
:1010360000220020000321002200200004210022BB
:1010460000200005210022002000062100220020A9
:10105600000727002800260007270028002600068C
:101066002700280026000527002800260004270060
:101076002800260003270028002600022700280053
:10108600260001270028002600002A002B00290040
:1010960007330034003200023300340032000133DB
:1010A6000034003200000A010B010901070A010B96
:1010B600010901060A010B010901050A010B0109D3
:1010C60001040A010B010901030A010B01090102CE
:1010D6000A010B010901010A010B010901002400A3
:1010E60025002300032400250023000224002500F8
:1010F600230001240025002300000706050403023F
:1011060017191B1D1F21232527292B2D2F31331698
:10111600181A1C1E202224496E6A656374696E675C
:101126002070726F6772616D2E2E2E00636F6D7068
:101136006C6574652E2E2E696E74656769747920E8
:10114600636865636B2E2E2E004552524F52007314
:101156007563636573732E000A68657864756D70D0
:1011660000253037783A20002530327820000A41B1
:101176006464726573733A20303120303220303324
:10118600203034203035203036203037203038209B
:101196003039203041203042203043203044203046
:1011A600452030460A000A0A5354415254204F46FD
:1011B6002050524F4752414D00207C20414444521A
:1011C6003A20002578002564002029204441544116
:0E11D600202D3E203C003E20282000293B001A
:00000001FF
