:100000000C9472000C9493000C9493000C94930045
:100010000C9493000C9493000C9493000C94930014
:100020000C9493000C9493000C9493000C94930004
:100030000C9493000C9493000C9493000C949300F4
:100040000C9493000C9493000C9493000C949300E4
:100050000C9493000C9493000C9493000C949300D4
:100060000C9493000C9493000C9493000C949300C4
:100070000C9493000C9493000C9493000C949300B4
:100080000C9493000C9493000C9493000C949300A4
:100090000C9493000C9493000C9493000C94930094
:1000A0000C9493000C9493000C9493000C94930084
:1000B0000C9493000C9493000C9493000C94930074
:1000C0000C9493000C9493000C9493000C94930064
:1000D0000C9493000C9493000C9493000C94930054
:1000E0000C94930011241FBECFEFD1E2DEBFCDBF31
:1000F00000E00CBF12E0A0E0B2E0E8EDF6E000E0C6
:100100000BBF02C007900D92A830B107D9F722E0CB
:10011000A8E0B2E001C01D92AE30B207E1F70E9444
:1001200095000C946A030C94000080E092E09F9389
:100130008F930E94A0000F900F9080E090E00895B0
:10014000CF93DF93CDB7DEB7AE014A5F5F4FFA01C1
:1001500061917191AF0180910A0290910B020E940E
:10016000B400DF91CF9108953F924F925F926F92CA
:100170007F928F929F92AF92BF92CF92DF92EF9237
:10018000FF920F931F93CF93DF9300D000D000D046
:100190000F920F92CDB7DEB76C017B018A01FC0193
:1001A00017821682838181FFEEC19AE0492EF60103
:1001B0002381F70123FD859123FF81917F01811523
:1001C00009F41FC1853239F423FD959123FF9191E4
:1001D0007F01953229F4B60190E00E94DC02E7CF5E
:1001E00030E0612C512C712CF0E27F1640F59B32EF
:1001F000D9F058F49032D1F09332F1F09E3299F563
:1002000076FCFFC0689476F806C09D3291F090337A
:10021000C1F4689470F8F70123FD959123FF919143
:100220007F019111E1CF29C0689471F8689472F848
:10023000F2CF689473F8EFCF689474F8ECCF77FC42
:100240001CC080ED890F8A30C8F676FE05C0649C1C
:10025000800D1124682EDFCF549C800D1124582E60
:10026000689475F8D8CF9C3619F4689477F8D3CF92
:100270009C3409F44BC0983671F2892F8F7D8554D8
:10028000833008F445C0933609F466C0933709F407
:1002900069C0933509F475C0943619F0993609F0A0
:1002A0009FC0F80177FE95C0619171918191919104
:1002B0008F01272D2F76722E97FF09C0909580957C
:1002C000709561957F4F8F4F9F4F689477F82AE024
:1002D00030E0AE014F5F5F4F5A010E940C038A1954
:1002E000A82E76FED9C0872D8E7FA61408F0D3C025
:1002F00074FE26C172FC1AC1F72DFE7E7F2EB62C2D
:10030000872D8678811509F4D4C015C131E083CFDB
:100310003115F9F0085F1F4F8FE389838824839498
:10032000912CAE014F5F5F4F5A01E89477F873FC50
:1003300003C085149104B0F181149104D1F55114D6
:1003400009F435CFB60180E290E00E94DC025A94B5
:10035000F6CF0C5F1F4FE0CFF801808189830E5FDD
:100360001F4FDCCFF801A190B1908F01662D70E096
:1003700076FC02C06FEF7FEFC5010E94D1024C01F5
:10038000D4CFF801A190B1908F01662D70E076FC7A
:1003900002C06FEF7FEFC5010E94C6024C01689456
:1003A00077F8C5CFB60180E290E00E94DC025A9453
:1003B000C0CFF50177FC859177FE81915F01B60191
:1003C00090E00E94DC0251105A94F1E08F1A9108DB
:1003D000B3CF61917191072E000C880B990B68CFF8
:1003E000372CE89434F82AE030E09537D9F1572DCE
:1003F000597F352E903739F1F8F4983549F19F3609
:1004000079F1F601868197812B960FB6F894DEBFBD
:100410000FBECDBFDF91CF911F910F91FF90EF9055
:10042000DF90CF90BF90AF909F908F907F906F9014
:100430005F904F903F900895983719F774FC05C06E
:1004400020E130E00FC0689434F8689432F8F8CFB7
:1004500074FE03C0872D8660382E20E132E002C092
:1004600028E030E0F80137FE11C06191719181916F
:1004700091918F01FE0131965F01AF010E940C0343
:100480008A19A82E732CE89477F82BCF619171917B
:1004900080E090E0EECF782EBA2C74FE31CFFE01D2
:1004A000EA0DF11D8081803309F043C0272D297E9C
:1004B000722E73FC0EC070FE4FC06A2CB51418F477
:1004C000650C6B18B52C852D8B195B1408F480E036
:1004D000B80EB51408F042C05B1874FE41C0B601F6
:1004E00080E390E00E94DC0272FE09C088E590E0A3
:1004F00071FC02C088E790E0B6010E94DC02A614FD
:10050000D8F1AA94B12C4FEFA41AB40ACE010196E7
:100510003C01A80EB91EF50182915F01B60190E081
:100520000E94DC026A147B04B1F709CFB62C782E46
:10053000B6CF72FC02C0B394BCCFB394B394B9CF1E
:10054000B62C782EDDCEB60180E290E00E94DC026F
:1005500033943514C0F3B7CF3B2CFBCF512CBDCF18
:10056000872D8678811559F280E271FC8BE277FC49
:100570008DE2B60190E0C1CFB60180E390E00E9429
:10058000DC026A94BCCF8FEF9FEF3ECFFC01059059
:10059000615070400110D8F7809590958E0F9F1F85
:1005A0000895FC016150704001900110D8F78095CA
:1005B00090958E0F9F1F08950F931F93CF93DF93F6
:1005C000182F092FEB018B8181FD09C01FEF0FEF61
:1005D000812F902FDF91CF911F910F91089582FF6E
:1005E00014C02E813F818C819D81281739073CF4EE
:1005F000E881F981CF0101969983888310838E81E8
:100600009F8101969F838E83E3CFE885F985812FB3
:100610001995892BA1F3DACFFA01AA27283051F1D5
:10062000203181F1E8946F936E7F6E5F7F4F8F4F23
:100630009F4FAF4FB1E03ED0B4E03CD0670F781F82
:10064000891F9A1FA11D680F791F8A1F911DA11D67
:100650006A0F711D811D911DA11D20D009F46894A0
:100660003F912AE0269F11243019305D3193DEF648
:10067000CF010895462F4770405D4193B3E00FD0FE
:10068000C9F7F6CF462F4F70405D4A3318F0495DE9
:1006900031FD4052419302D0A9F7EACFB4E0A695CC
:1006A0009795879577956795BA95C9F700976105EE
:1006B000710508959B01AC010A2E06945795479544
:1006C00037952795BA95C9F7620F731F841F951F39
:0806D000A01D0895F894FFCF6E
:0806D8006369616F6F6F0000A0
:00000001FF
